:100000000C943E000C9453000C9453000C94530039
:100010000C9453000C9453000C9453000C94530014
:100020000C9453000C9453000C9453000C94530004
:100030000C9453000C9453000C9453000C945300F4
:100040000C9453000C9453000C9453000C945300E4
:100050000C9453000C9453000C9453000C945300D4
:100060000C9453000C9453000C9453000C945300C4
:100070000C9453000C9453000C94530011241FBE95
:10008000CFEFD8E0DEBFCDBF11E0A0E0B1E0E2EC01
:10009000F1E002C005900D92A230B107D9F70E949D
:1000A0009D000C94DF000C9400000F931F93CF93DE
:1000B000DF93482F30E020E0CAE0D0E00EE110E00E
:1000C00042B990E080E060910001709101018617D3
:1000D000970744F4EFECF7E03197F1F700C0000028
:1000E0000196F1CF12B890E080E0E0910001F0912C
:1000F0000101BE016E1B7F0B8617970744F4EFECDE
:10010000F7E03197F1F700C000000196EECFC9018A
:10011000B8010E94B700892B29F43197F0930101AF
:10012000E09300012F5F3F4F2C32F1E03F0741F693
:10013000DF91CF911F910F9108958FEF81B984B90D
:1001400087B91AB8CAE0D0E0D0930101C09300018A
:100150004B9B05C04B99FECF82E00E9455004A9B05
:10016000F3CF4A99FECF81E00E945500EDCF97FB77
:10017000072E16F4009407D077FD09D00E94CB001B
:1001800007FC05D03EF4909581959F4F089570959A
:1001900061957F4F0895AA1BBB1B51E107C0AA1FA1
:1001A000BB1FA617B70710F0A61BB70B881F991F18
:1001B0005A95A9F780959095BC01CD010895F894C2
:0201C000FFCF6F
:0201C2000A0031
:00000001FF
