:100000000C943E000C9496000C945B000C945B00E6
:100010000C945B000C945B000C945B000C945B00F4
:100020000C945B000C945B000C945B000C945B00E4
:100030000C945B000C946E000C945B000C945B00C1
:100040000C945B000C945B000C945B000C945B00C4
:100050000C945B000C945B000C945B000C945B00B4
:100060000C945B000C945B000C945B000C945B00A4
:100070000C945B000C945B000C945B0011241FBE7D
:10008000CFEFD8E0DEBFCDBF11E0A0E0B1E0E8E304
:10009000F2E002C005900D92A230B107D9F721E03D
:1000A000A2E0B1E001C01D92A530B207E1F70E94C5
:1000B000EB000C941A010C94000080910401813033
:1000C00029F48091000182B98DB31DBA809103019A
:1000D000813019F48091010182B908951F920F9225
:1000E0000FB60F9211242F933F934F935F936F930B
:1000F0007F938F939F93AF93BF93EF93FF9381E091
:1001000080930401F8940E945D00FF91EF91BF91EC
:10011000AF919F918F917F916F915F914F913F919F
:100120002F910F900FBE0F901F9018951F920F9256
:100130000FB60F9211242F933F934F935F936F93BA
:100140007F938F939F93AF93BF93EF93FF9381E040
:1001500080930301F8940E945D008FE19EE4019773
:10016000F1F700C00000FF91EF91BF91AF919F9117
:100170008F917F916F915F914F913F912F910F9050
:100180000FBE0F901F9018951092040110928500D9
:100190001092840024E83EE1AC01429FC001439FDD
:1001A000900D529F900D11249093890080938800A8
:1001B000109280008DE0809381001092820082E096
:1001C00080936F000895E89AE9E6F0E0808181600D
:1001D0008083789408958FEF81B91AB884E690E00F
:1001E0002FEF30E742E0215030404040E1F700C0BF
:1001F00000000197A9F783E090E02FEB3AED40E093
:10020000215030404040E1F700C0000038B120915B
:100210000201321302C02091000122B9019769F74F
:100220008091020182B90E94E30081E090E00E9487
:08023000C400FFCFF894FFCFDA
:020238000201C1
:00000001FF
