:100000000C943E000C945B000C945B000C945B0021
:100010000C945B000C945B000C945B000C945B00F4
:100020000C945B000C945B000C945B000C945B00E4
:100030000C945B000C945B000C945B000C945B00D4
:100040000C945B000C945B000C945B000C945B00C4
:100050000C945B000C945B000C945B000C945B00B4
:100060000C945B000C945B000C945B000C945B00A4
:100070000C945B000C945B000C945B0011241FBE7D
:10008000CFEFD8E0DEBFCDBF11E0A0E0B1E0E0E00F
:10009000F2E002C005900D92A430B107D9F721E03B
:1000A000A4E0B1E001C01D92A830B207E1F70E94C0
:1000B000B1000C94FE000C940000CF92DF92EF92FE
:1000C000FF920F931F93CF93DF93FC016B01BA0153
:1000D000A90190E080E086179707D4F530E020E092
:1000E000241735079CF5C0910401CC2391F0C091F1
:1000F0000201C5B9D0E0C0E000811181C017D1076D
:100100005CF4AFECB7E01197F1F700C00000219666
:10011000F3CFC0910301EDCFC0910701C5B9D0E085
:10012000C0E0D6010D911C91E080F1800E191F09ED
:10013000C017D10744F4AFECB7E01197F1F700C056
:1001400000002196EECF2F5F3F4FCACF0196C3CF5D
:10015000DF91CF911F910F91FF90EF90DF90CF90A3
:1001600008958FEF81B984B987B91AB8C5E0D0E096
:1001700020E130E04AE050E060E071E085E091E0AD
:100180000E945D0080910501909106010396909375
:10019000060180930501219759F70C9719F4809176
:1001A000070188B9109206011092050189E190E0DB
:1001B000909301018093000181E080930401C5E0E8
:1001C000D0E02AE030E048E050E060E071E085E017
:1001D00091E00E945D0080910501909106010596D5
:1001E0009093060180930501219759F7499719F4D7
:1001F0008091070188B990E080E00895F894FFCFDE
:040200000C000102EB
:00000001FF
