:100000000C943E000C945B000C945B000C945B0021
:100010000C945B000C945B000C945B000C945B00F4
:100020000C945B000C945B000C945B000C945B00E4
:100030000C945B000C945B000C945B000C945B00D4
:100040000C945B000C945B000C945B000C945B00C4
:100050000C945B000C945B000C945B000C945B00B4
:100060000C945B000C945D000C945B000C945B00A2
:100070000C945B000C945B000C945B0011241FBE7D
:10008000CFEFD8E0DEBFCDBF11E0A0E0B1E0EEE7FA
:10009000F1E002C005900D92A230B107D9F721E03E
:1000A000A2E0B1E001C01D92A630B207E1F70E94C4
:1000B000A6000C94BD000C9400001F921FB61F9266
:1000C00011242F933F938F939F93EF93FF93E0918E
:1000D0000201F0E0E050F0408081882371F18091CE
:1000E0000401909105018115944038F58091040137
:1000F000909105019C012F5F3F4F309305012093A4
:10010000040192BD81BDE091020181E08E0F8093D8
:100110000201F0E0E050F040808180BDFA9AF99A47
:1001200081E080930301FF91EF919F918F913F9127
:100130002F911F901FBE1F901895FB98F1CFF89438
:100140008FEF87B91AB8FB9A789408950F92CDB7BC
:10015000DEB70E949F00809103018823E1F380B500
:1001600090E00E94B5008983F6CFF999FECF92BD49
:0E01700081BDF89A992780B50895F894FFCFC5
:02017E0002017C
:00000001FF
